{
  "_format": "hh-sol-artifact-1",
  "contractName": "DocumentStore",
  "sourceName": "contracts/DocumentStore.sol",
  "abi": [
    {
      "anonymous": false,
      "inputs": [
        {
          "indexed": true,
          "internalType": "address",
          "name": "user",
          "type": "address"
        },
        {
          "indexed": false,
          "internalType": "string",
          "name": "docType",
          "type": "string"
        },
        {
          "indexed": false,
          "internalType": "string",
          "name": "fileHash",
          "type": "string"
        },
        {
          "indexed": false,
          "internalType": "uint256",
          "name": "timestamp",
          "type": "uint256"
        }
      ],
      "name": "DocumentStored",
      "type": "event"
    },
    {
      "inputs": [],
      "name": "getDocuments",
      "outputs": [
        {
          "components": [
            {
              "internalType": "string",
              "name": "docType",
              "type": "string"
            },
            {
              "internalType": "string",
              "name": "fileHash",
              "type": "string"
            },
            {
              "internalType": "uint256",
              "name": "timestamp",
              "type": "uint256"
            }
          ],
          "internalType": "struct DocumentStore.Document[]",
          "name": "",
          "type": "tuple[]"
        }
      ],
      "stateMutability": "view",
      "type": "function"
    },
    {
      "inputs": [
        {
          "internalType": "string",
          "name": "docType",
          "type": "string"
        },
        {
          "internalType": "string",
          "name": "fileHash",
          "type": "string"
        }
      ],
      "name": "storeDocument",
      "outputs": [],
      "stateMutability": "nonpayable",
      "type": "function"
    }
  ],
  "bytecode": "0x608060405234801561001057600080fd5b50610aab806100206000396000f3fe608060405234801561001057600080fd5b50600436106100365760003560e01c8063ef2d87001461003b578063f9c71f8714610059575b600080fd5b610043610075565b6040516100509190610516565b60405180910390f35b610073600480360381019061006e9190610681565b61023e565b005b60606000803373ffffffffffffffffffffffffffffffffffffffff1673ffffffffffffffffffffffffffffffffffffffff168152602001908152602001600020805480602002602001604051908101604052809291908181526020016000905b82821015610235578382906000526020600020906003020160405180606001604052908160008201805461010890610728565b80601f016020809104026020016040519081016040528092919081815260200182805461013490610728565b80156101815780601f1061015657610100808354040283529160200191610181565b820191906000526020600020905b81548152906001019060200180831161016457829003601f168201915b5050505050815260200160018201805461019a90610728565b80601f01602080910402602001604051908101604052809291908181526020018280546101c690610728565b80156102135780601f106101e857610100808354040283529160200191610213565b820191906000526020600020905b8154815290600101906020018083116101f657829003601f168201915b50505050508152602001600282015481525050815260200190600101906100d5565b50505050905090565b600060405180606001604052808481526020018381526020014281525090506000803373ffffffffffffffffffffffffffffffffffffffff1673ffffffffffffffffffffffffffffffffffffffff16815260200190815260200160002081908060018154018082558091505060019003906000526020600020906003020160009091909190915060008201518160000190816102da9190610905565b5060208201518160010190816102f09190610905565b506040820151816002015550503373ffffffffffffffffffffffffffffffffffffffff167f2fca4b73a01cd27c5d068895159be4df60fecee35e4dfec78b5a73ce3077b46184844260405161034793929190610a30565b60405180910390a2505050565b600081519050919050565b600082825260208201905092915050565b6000819050602082019050919050565b600081519050919050565b600082825260208201905092915050565b60005b838110156103ba57808201518184015260208101905061039f565b60008484015250505050565b6000601f19601f8301169050919050565b60006103e282610380565b6103ec818561038b565b93506103fc81856020860161039c565b610405816103c6565b840191505092915050565b6000819050919050565b61042381610410565b82525050565b6000606083016000830151848203600086015261044682826103d7565b9150506020830151848203602086015261046082826103d7565b9150506040830151610475604086018261041a565b508091505092915050565b600061048c8383610429565b905092915050565b6000602082019050919050565b60006104ac82610354565b6104b6818561035f565b9350836020820285016104c885610370565b8060005b8581101561050457848403895281516104e58582610480565b94506104f083610494565b925060208a019950506001810190506104cc565b50829750879550505050505092915050565b6000602082019050818103600083015261053081846104a1565b905092915050565b6000604051905090565b600080fd5b600080fd5b600080fd5b600080fd5b7f4e487b7100000000000000000000000000000000000000000000000000000000600052604160045260246000fd5b61058e826103c6565b810181811067ffffffffffffffff821117156105ad576105ac610556565b5b80604052505050565b60006105c0610538565b90506105cc8282610585565b919050565b600067ffffffffffffffff8211156105ec576105eb610556565b5b6105f5826103c6565b9050602081019050919050565b82818337600083830152505050565b600061062461061f846105d1565b6105b6565b9050828152602081018484840111156106405761063f610551565b5b61064b848285610602565b509392505050565b600082601f8301126106685761066761054c565b5b8135610678848260208601610611565b91505092915050565b6000806040838503121561069857610697610542565b5b600083013567ffffffffffffffff8111156106b6576106b5610547565b5b6106c285828601610653565b925050602083013567ffffffffffffffff8111156106e3576106e2610547565b5b6106ef85828601610653565b9150509250929050565b7f4e487b7100000000000000000000000000000000000000000000000000000000600052602260045260246000fd5b6000600282049050600182168061074057607f821691505b602082108103610753576107526106f9565b5b50919050565b60008190508160005260206000209050919050565b60006020601f8301049050919050565b600082821b905092915050565b6000600883026107bb7fffffffffffffffffffffffffffffffffffffffffffffffffffffffffffffffff8261077e565b6107c5868361077e565b95508019841693508086168417925050509392505050565b6000819050919050565b60006108026107fd6107f884610410565b6107dd565b610410565b9050919050565b6000819050919050565b61081c836107e7565b61083061082882610809565b84845461078b565b825550505050565b600090565b610845610838565b610850818484610813565b505050565b5b818110156108745761086960008261083d565b600181019050610856565b5050565b601f8211156108b95761088a81610759565b6108938461076e565b810160208510156108a2578190505b6108b66108ae8561076e565b830182610855565b50505b505050565b600082821c905092915050565b60006108dc600019846008026108be565b1980831691505092915050565b60006108f583836108cb565b9150826002028217905092915050565b61090e82610380565b67ffffffffffffffff81111561092757610926610556565b5b6109318254610728565b61093c828285610878565b600060209050601f83116001811461096f576000841561095d578287015190505b61096785826108e9565b8655506109cf565b601f19841661097d86610759565b60005b828110156109a557848901518255600182019150602085019450602081019050610980565b868310156109c257848901516109be601f8916826108cb565b8355505b6001600288020188555050505b505050505050565b600082825260208201905092915050565b60006109f382610380565b6109fd81856109d7565b9350610a0d81856020860161039c565b610a16816103c6565b840191505092915050565b610a2a81610410565b82525050565b60006060820190508181036000830152610a4a81866109e8565b90508181036020830152610a5e81856109e8565b9050610a6d6040830184610a21565b94935050505056fea26469706673582212200623db99fb7ff5b873b5add05efa83ff27ed3911bf2b269be58edeae1a36ca2964736f6c63430008140033",
  "linkReferences": {},
  "deployedLinkReferences": {}
}